{
  "_format": "hh3-artifact-1",
  "contractName": "WorkHistory",
  "sourceName": "contracts/WorkHistory.sol",
  "abi": [
    {
      "inputs": [
        {
          "components": [
            {
              "internalType": "string",
              "name": "orgName",
              "type": "string"
            },
            {
              "internalType": "string",
              "name": "orgWebsite",
              "type": "string"
            },
            {
              "internalType": "string",
              "name": "physicalAddress",
              "type": "string"
            },
            {
              "internalType": "address",
              "name": "orgWalletAddress",
              "type": "address"
            }
          ],
          "internalType": "struct WorkHistory.ConstructorArgumentsOrganizations[]",
          "name": "_orgs",
          "type": "tuple[]"
        },
        {
          "internalType": "address",
          "name": "_fluenceBackendAddress",
          "type": "address"
        }
      ],
      "stateMutability": "nonpayable",
      "type": "constructor"
    },
    {
      "anonymous": false,
      "inputs": [
        {
          "indexed": true,
          "internalType": "address",
          "name": "user",
          "type": "address"
        },
        {
          "indexed": true,
          "internalType": "address",
          "name": "addedBy",
          "type": "address"
        },
        {
          "indexed": false,
          "internalType": "bytes32",
          "name": "documentHash",
          "type": "bytes32"
        }
      ],
      "name": "DocumentAdded",
      "type": "event"
    },
    {
      "anonymous": false,
      "inputs": [
        {
          "indexed": true,
          "internalType": "address",
          "name": "employee",
          "type": "address"
        }
      ],
      "name": "EmployeeRegistered",
      "type": "event"
    },
    {
      "anonymous": false,
      "inputs": [
        {
          "indexed": true,
          "internalType": "address",
          "name": "orgAddress",
          "type": "address"
        }
      ],
      "name": "InitialOrganizationRemoved",
      "type": "event"
    },
    {
      "anonymous": false,
      "inputs": [
        {
          "indexed": true,
          "internalType": "address",
          "name": "orgAddress",
          "type": "address"
        },
        {
          "indexed": false,
          "internalType": "string",
          "name": "orgName",
          "type": "string"
        }
      ],
      "name": "OrganizationAdded",
      "type": "event"
    },
    {
      "anonymous": false,
      "inputs": [
        {
          "indexed": true,
          "internalType": "address",
          "name": "orgAddress",
          "type": "address"
        }
      ],
      "name": "OrganizationTrusted",
      "type": "event"
    },
    {
      "anonymous": false,
      "inputs": [
        {
          "indexed": true,
          "internalType": "address",
          "name": "orgAddress",
          "type": "address"
        },
        {
          "indexed": false,
          "internalType": "address",
          "name": "verifiedBy",
          "type": "address"
        }
      ],
      "name": "OrganizationVerified",
      "type": "event"
    },
    {
      "inputs": [],
      "name": "VERIFICATION_THRESHOLD",
      "outputs": [
        {
          "internalType": "uint256",
          "name": "",
          "type": "uint256"
        }
      ],
      "stateMutability": "view",
      "type": "function"
    },
    {
      "inputs": [
        {
          "internalType": "address",
          "name": "_user",
          "type": "address"
        },
        {
          "internalType": "bytes32",
          "name": "_documentHash",
          "type": "bytes32"
        }
      ],
      "name": "addDocument",
      "outputs": [],
      "stateMutability": "nonpayable",
      "type": "function"
    },
    {
      "inputs": [
        {
          "components": [
            {
              "internalType": "string",
              "name": "orgName",
              "type": "string"
            },
            {
              "internalType": "string",
              "name": "orgWebsite",
              "type": "string"
            },
            {
              "internalType": "string",
              "name": "physicalAddress",
              "type": "string"
            },
            {
              "internalType": "address",
              "name": "orgWalletAddress",
              "type": "address"
            }
          ],
          "internalType": "struct WorkHistory.ConstructorArgumentsOrganizations",
          "name": "_org",
          "type": "tuple"
        }
      ],
      "name": "addOrganization",
      "outputs": [],
      "stateMutability": "nonpayable",
      "type": "function"
    },
    {
      "inputs": [
        {
          "components": [
            {
              "internalType": "string",
              "name": "orgName",
              "type": "string"
            },
            {
              "internalType": "string",
              "name": "orgWebsite",
              "type": "string"
            },
            {
              "internalType": "string",
              "name": "physicalAddress",
              "type": "string"
            },
            {
              "internalType": "address",
              "name": "orgWalletAddress",
              "type": "address"
            }
          ],
          "internalType": "struct WorkHistory.ConstructorArgumentsOrganizations",
          "name": "_org",
          "type": "tuple"
        }
      ],
      "name": "addToInitialOrganizations",
      "outputs": [],
      "stateMutability": "nonpayable",
      "type": "function"
    },
    {
      "inputs": [
        {
          "internalType": "address",
          "name": "_employee",
          "type": "address"
        }
      ],
      "name": "checkIfEmployeeExists",
      "outputs": [
        {
          "internalType": "bool",
          "name": "",
          "type": "bool"
        }
      ],
      "stateMutability": "view",
      "type": "function"
    },
    {
      "inputs": [
        {
          "internalType": "address",
          "name": "_orgAddress",
          "type": "address"
        }
      ],
      "name": "checkIfOrgExists",
      "outputs": [
        {
          "internalType": "bool",
          "name": "",
          "type": "bool"
        }
      ],
      "stateMutability": "view",
      "type": "function"
    },
    {
      "inputs": [],
      "name": "fluenceBackendAddress",
      "outputs": [
        {
          "internalType": "address",
          "name": "",
          "type": "address"
        }
      ],
      "stateMutability": "view",
      "type": "function"
    },
    {
      "inputs": [],
      "name": "getAllInitialOrganizationIds",
      "outputs": [
        {
          "components": [
            {
              "internalType": "string",
              "name": "orgName",
              "type": "string"
            },
            {
              "internalType": "string",
              "name": "orgWebsite",
              "type": "string"
            },
            {
              "internalType": "string",
              "name": "physicalAddress",
              "type": "string"
            },
            {
              "internalType": "address",
              "name": "orgWalletAddress",
              "type": "address"
            },
            {
              "internalType": "bool",
              "name": "isTrusted",
              "type": "bool"
            },
            {
              "internalType": "bool",
              "name": "isFromConstructor",
              "type": "bool"
            }
          ],
          "internalType": "struct WorkHistory.Organization[]",
          "name": "",
          "type": "tuple[]"
        }
      ],
      "stateMutability": "view",
      "type": "function"
    },
    {
      "inputs": [
        {
          "internalType": "address",
          "name": "_orgAddress",
          "type": "address"
        }
      ],
      "name": "getOrganizationsPastAddedDocuments",
      "outputs": [
        {
          "components": [
            {
              "internalType": "bytes32",
              "name": "documentHash",
              "type": "bytes32"
            },
            {
              "internalType": "address",
              "name": "addedBy",
              "type": "address"
            },
            {
              "internalType": "uint256",
              "name": "timestamp",
              "type": "uint256"
            }
          ],
          "internalType": "struct WorkHistory.DocumentRecord[]",
          "name": "orgDocuments",
          "type": "tuple[]"
        },
        {
          "internalType": "address[]",
          "name": "correspondingUsers",
          "type": "address[]"
        }
      ],
      "stateMutability": "view",
      "type": "function"
    },
    {
      "inputs": [],
      "name": "getPendingOrganizations",
      "outputs": [
        {
          "internalType": "address[]",
          "name": "",
          "type": "address[]"
        }
      ],
      "stateMutability": "view",
      "type": "function"
    },
    {
      "inputs": [
        {
          "internalType": "address",
          "name": "_user",
          "type": "address"
        }
      ],
      "name": "getUserDocuments",
      "outputs": [
        {
          "components": [
            {
              "internalType": "bytes32",
              "name": "documentHash",
              "type": "bytes32"
            },
            {
              "internalType": "address",
              "name": "addedBy",
              "type": "address"
            },
            {
              "internalType": "uint256",
              "name": "timestamp",
              "type": "uint256"
            }
          ],
          "internalType": "struct WorkHistory.DocumentRecord[]",
          "name": "",
          "type": "tuple[]"
        }
      ],
      "stateMutability": "view",
      "type": "function"
    },
    {
      "inputs": [
        {
          "internalType": "address",
          "name": "_user",
          "type": "address"
        }
      ],
      "name": "getUsersData",
      "outputs": [
        {
          "components": [
            {
              "components": [
                {
                  "internalType": "bytes32",
                  "name": "documentHash",
                  "type": "bytes32"
                },
                {
                  "internalType": "address",
                  "name": "addedBy",
                  "type": "address"
                },
                {
                  "internalType": "uint256",
                  "name": "timestamp",
                  "type": "uint256"
                }
              ],
              "internalType": "struct WorkHistory.DocumentRecord[]",
              "name": "documents",
              "type": "tuple[]"
            },
            {
              "components": [
                {
                  "internalType": "string",
                  "name": "orgName",
                  "type": "string"
                },
                {
                  "internalType": "string",
                  "name": "orgWebsite",
                  "type": "string"
                },
                {
                  "internalType": "string",
                  "name": "physicalAddress",
                  "type": "string"
                },
                {
                  "internalType": "address",
                  "name": "orgWalletAddress",
                  "type": "address"
                },
                {
                  "internalType": "bool",
                  "name": "isTrusted",
                  "type": "bool"
                },
                {
                  "internalType": "bool",
                  "name": "isFromConstructor",
                  "type": "bool"
                }
              ],
              "internalType": "struct WorkHistory.Organization[]",
              "name": "organizationsThatAdded",
              "type": "tuple[]"
            }
          ],
          "internalType": "struct WorkHistory.UserData[]",
          "name": "",
          "type": "tuple[]"
        },
        {
          "internalType": "bool",
          "name": "",
          "type": "bool"
        }
      ],
      "stateMutability": "view",
      "type": "function"
    },
    {
      "inputs": [
        {
          "internalType": "address",
          "name": "_orgAddress",
          "type": "address"
        }
      ],
      "name": "getVerificationCount",
      "outputs": [
        {
          "internalType": "uint256",
          "name": "",
          "type": "uint256"
        }
      ],
      "stateMutability": "view",
      "type": "function"
    },
    {
      "inputs": [
        {
          "internalType": "address",
          "name": "_orgAddress",
          "type": "address"
        },
        {
          "internalType": "address",
          "name": "_verifier",
          "type": "address"
        }
      ],
      "name": "hasVerified",
      "outputs": [
        {
          "internalType": "bool",
          "name": "",
          "type": "bool"
        }
      ],
      "stateMutability": "view",
      "type": "function"
    },
    {
      "inputs": [
        {
          "internalType": "uint256",
          "name": "",
          "type": "uint256"
        }
      ],
      "name": "initialOrganizations",
      "outputs": [
        {
          "internalType": "string",
          "name": "orgName",
          "type": "string"
        },
        {
          "internalType": "string",
          "name": "orgWebsite",
          "type": "string"
        },
        {
          "internalType": "string",
          "name": "physicalAddress",
          "type": "string"
        },
        {
          "internalType": "address",
          "name": "orgWalletAddress",
          "type": "address"
        },
        {
          "internalType": "bool",
          "name": "isTrusted",
          "type": "bool"
        },
        {
          "internalType": "bool",
          "name": "isFromConstructor",
          "type": "bool"
        }
      ],
      "stateMutability": "view",
      "type": "function"
    },
    {
      "inputs": [
        {
          "internalType": "address",
          "name": "",
          "type": "address"
        }
      ],
      "name": "organizations",
      "outputs": [
        {
          "internalType": "string",
          "name": "orgName",
          "type": "string"
        },
        {
          "internalType": "string",
          "name": "orgWebsite",
          "type": "string"
        },
        {
          "internalType": "string",
          "name": "physicalAddress",
          "type": "string"
        },
        {
          "internalType": "address",
          "name": "orgWalletAddress",
          "type": "address"
        },
        {
          "internalType": "bool",
          "name": "isTrusted",
          "type": "bool"
        },
        {
          "internalType": "bool",
          "name": "isFromConstructor",
          "type": "bool"
        }
      ],
      "stateMutability": "view",
      "type": "function"
    },
    {
      "inputs": [],
      "name": "owner",
      "outputs": [
        {
          "internalType": "address",
          "name": "",
          "type": "address"
        }
      ],
      "stateMutability": "view",
      "type": "function"
    },
    {
      "inputs": [
        {
          "internalType": "uint256",
          "name": "",
          "type": "uint256"
        }
      ],
      "name": "pendingOrgs",
      "outputs": [
        {
          "internalType": "address",
          "name": "",
          "type": "address"
        }
      ],
      "stateMutability": "view",
      "type": "function"
    },
    {
      "inputs": [
        {
          "internalType": "address",
          "name": "_employee",
          "type": "address"
        }
      ],
      "name": "registerEmployee",
      "outputs": [],
      "stateMutability": "nonpayable",
      "type": "function"
    },
    {
      "inputs": [
        {
          "internalType": "address",
          "name": "",
          "type": "address"
        }
      ],
      "name": "registeredEmployees",
      "outputs": [
        {
          "internalType": "bool",
          "name": "",
          "type": "bool"
        }
      ],
      "stateMutability": "view",
      "type": "function"
    },
    {
      "inputs": [
        {
          "internalType": "uint256",
          "name": "",
          "type": "uint256"
        }
      ],
      "name": "registeredEmployeesList",
      "outputs": [
        {
          "internalType": "address",
          "name": "",
          "type": "address"
        }
      ],
      "stateMutability": "view",
      "type": "function"
    },
    {
      "inputs": [
        {
          "internalType": "address",
          "name": "_orgAddress",
          "type": "address"
        }
      ],
      "name": "removeInitialOrganization",
      "outputs": [],
      "stateMutability": "nonpayable",
      "type": "function"
    },
    {
      "inputs": [
        {
          "internalType": "address",
          "name": "_orgAddress",
          "type": "address"
        }
      ],
      "name": "removeOrganization",
      "outputs": [],
      "stateMutability": "nonpayable",
      "type": "function"
    },
    {
      "inputs": [
        {
          "internalType": "uint256",
          "name": "_newThreshold",
          "type": "uint256"
        }
      ],
      "name": "setVerificationThreshold",
      "outputs": [],
      "stateMutability": "nonpayable",
      "type": "function"
    },
    {
      "inputs": [
        {
          "internalType": "address",
          "name": "",
          "type": "address"
        }
      ],
      "name": "verificationStatuses",
      "outputs": [
        {
          "internalType": "uint256",
          "name": "count",
          "type": "uint256"
        }
      ],
      "stateMutability": "view",
      "type": "function"
    },
    {
      "inputs": [
        {
          "internalType": "address",
          "name": "_orgAddress",
          "type": "address"
        }
      ],
      "name": "verifyOrganization",
      "outputs": [],
      "stateMutability": "nonpayable",
      "type": "function"
    },
    {
      "inputs": [
        {
          "internalType": "address",
          "name": "_voter",
          "type": "address"
        },
        {
          "internalType": "address",
          "name": "_orgAddress",
          "type": "address"
        }
      ],
      "name": "verifyOrganizationOnBehalf",
      "outputs": [],
      "stateMutability": "nonpayable",
      "type": "function"
    }
  ],
  "bytecode": "0x6080604052600180546001600160a01b03191673dcefdee35a355715924c100870a5689b06c2dd95179055600360025534801561003a575f5ffd5b506040516136d93803806136d9833981016040819052610059916104cc565b600180546001600160a01b0319166001600160a01b0383161790555f5b82518110156103c1576040518060c0016040528084838151811061009c5761009c61064b565b60200260200101515f015181526020018483815181106100be576100be61064b565b60200260200101516020015181526020018483815181106100e1576100e161064b565b60200260200101516040015181526020018483815181106101045761010461064b565b6020026020010151606001516001600160a01b031681526020016001151581526020016001151581525060055f8584815181106101435761014361064b565b602090810291909101810151606001516001600160a01b031682528101919091526040015f208151819061017790826106e3565b506020820151600182019061018c90826106e3565b50604082015160028201906101a190826106e3565b50606082015160039091018054608084015160a0909401511515600160a81b0260ff60a81b19941515600160a01b026001600160a81b03199092166001600160a01b0390941693909317179290921617905582516004906005905f9086908590811061020f5761020f61064b565b602090810291909101810151606001516001600160a01b03168252818101929092526040015f90812083546001810185559382529190209091600402018061025783826107a0565b5060018181019061026a908401826107a0565b5060028181019061027d908401826107a0565b50600391820180549190920180546001600160a01b039092166001600160a01b031983168117825583546001600160a81b031990931617600160a01b9283900460ff908116151590930217808255925460ff60a81b19909316600160a81b93849004909216151590920217905582518390829081106102fe576102fe61064b565b6020026020010151606001516001600160a01b03167f99387386d12dfaf2b6ede1ebfecd80b353c59f8669706cce8411513524898b258483815181106103465761034661064b565b60200260200101515f015160405161035e919061086c565b60405180910390a28281815181106103785761037861064b565b6020026020010151606001516001600160a01b03167f70781e7fc2edf3e1f92ac434704e005e13431003c635dfe12def4529af34b61960405160405180910390a2600101610076565b50505f80546001600160a01b03191633179055506108a1565b634e487b7160e01b5f52604160045260245ffd5b604051608081016001600160401b0381118282101715610410576104106103da565b60405290565b604051601f8201601f191681016001600160401b038111828210171561043e5761043e6103da565b604052919050565b5f82601f830112610455575f5ffd5b81516001600160401b0381111561046e5761046e6103da565b610481601f8201601f1916602001610416565b818152846020838601011115610495575f5ffd5b8160208501602083015e5f918101602001919091529392505050565b80516001600160a01b03811681146104c7575f5ffd5b919050565b5f5f604083850312156104dd575f5ffd5b82516001600160401b038111156104f2575f5ffd5b8301601f81018513610502575f5ffd5b80516001600160401b0381111561051b5761051b6103da565b8060051b61052b60208201610416565b91825260208184018101929081019088841115610546575f5ffd5b6020850192505b8383101561062e5782516001600160401b0381111561056a575f5ffd5b85016080818b03601f1901121561057f575f5ffd5b6105876103ee565b60208201516001600160401b0381111561059f575f5ffd5b6105ae8c602083860101610446565b82525060408201516001600160401b038111156105c9575f5ffd5b6105d88c602083860101610446565b60208301525060608201516001600160401b038111156105f6575f5ffd5b6106058c602083860101610446565b604083015250610617608083016104b1565b60608201528352506020928301929091019061054d565b8096505050505050610642602084016104b1565b90509250929050565b634e487b7160e01b5f52603260045260245ffd5b600181811c9082168061067357607f821691505b60208210810361069157634e487b7160e01b5f52602260045260245ffd5b50919050565b601f8211156106de57805f5260205f20601f840160051c810160208510156106bc5750805b601f840160051c820191505b818110156106db575f81556001016106c8565b50505b505050565b81516001600160401b038111156106fc576106fc6103da565b6107108161070a845461065f565b84610697565b6020601f821160018114610745575f831561072b5750848201515b600184901b5f19600386901b1c198216175b8555506106db565b5f84815260208120601f198516915b828110156107745787850151825560209485019460019092019101610754565b508482101561079157868401515f19600387901b60f8161c191681555b50505050600190811b01905550565b8181036107ab575050565b6107b5825461065f565b6001600160401b038111156107cc576107cc6103da565b6107da8161070a845461065f565b5f601f821160018114610809575f831561072b575081850154600184901b5f19600386901b1c1982161761073d565b5f8581526020808220868352908220601f198616925b8381101561083f578286015482556001958601959091019060200161081f565b508583101561085c57818501545f19600388901b60f8161c191681555b5050505050600190811b01905550565b602081525f82518060208401528060208501604085015e5f604082850101526040601f19601f83011684010191505092915050565b612e2b806108ae5f395ff3fe608060405234801561000f575f5ffd5b50600436106101a1575f3560e01c8063866fa9f1116100f3578063bd2e513311610093578063f017c5a61161006e578063f017c5a6146103f6578063f43eb52614610421578063fb4cf42514610436578063fdf4eb3114610461575f5ffd5b8063bd2e5133146103ae578063c774f578146103d0578063d5a739f9146103e3575f5ffd5b806390a4b162116100ce57806390a4b162146103555780639947958414610375578063adf3de9914610388578063b5fdb79b1461039b575f5ffd5b8063866fa9f11461031d5780638b3d2325146103305780638da5cb5b14610343575f5ffd5b80634de4d8441161015e57806362f2c3fe1161013957806362f2c3fe146102c1578063637a34f8146102e25780636d567acd146102f75780636ff2c6101461030a575f5ffd5b80634de4d8441461026b5780635786a5521461029b5780635a1f7406146102ae575f5ffd5b80630989086d146101a55780630ce9ffe8146101dc57806311c25060146101f15780631745433d1461021c57806338cc32c4146102415780633f53b43f14610254575b5f5ffd5b6101c76101b3366004612577565b60086020525f908152604090205460ff1681565b60405190151581526020015b60405180910390f35b6101ef6101ea366004612597565b610482565b005b600154610204906001600160a01b031681565b6040516001600160a01b0390911681526020016101d3565b61022f61022a3660046125bf565b610616565b6040516101d396959493929190612604565b6101ef61024f3660046125bf565b610802565b61025d60025481565b6040519081526020016101d3565b6101c7610279366004612577565b6001600160a01b039081165f9081526005602052604090206003015416151590565b6101ef6102a9366004612577565b61082e565b61022f6102bc366004612577565b610939565b6102d46102cf366004612577565b610953565b6040516101d392919061272b565b6102ea610e8c565b6040516101d39190612809565b6101ef610305366004612577565b6110d9565b6101ef610318366004612577565b611343565b6101ef61032b3660046128e3565b611445565b61020461033e3660046125bf565b611698565b5f54610204906001600160a01b031681565b610368610363366004612577565b6116c0565b6040516101d39190612a12565b6101ef6103833660046128e3565b611756565b6101c7610396366004612a24565b611a3a565b6101ef6103a9366004612577565b611a69565b61025d6103bc366004612577565b60066020525f908152604090206001015481565b6102046103de3660046125bf565b611d43565b6101ef6103f1366004612a24565b611d52565b61025d610404366004612577565b6001600160a01b03165f9081526006602052604090206001015490565b61042961201a565b6040516101d39190612a8e565b6101c7610444366004612577565b6001600160a01b03165f9081526008602052604090205460ff1690565b61047461046f366004612577565b61207a565b6040516101d3929190612aa0565b335f90815260056020526040902060030154600160a01b900460ff166105045760405162461bcd60e51b815260206004820152602c60248201527f4f6e6c792074727573746564206f7267616e697a6174696f6e732063616e206160448201526b646420646f63756d656e747360a01b60648201526084015b60405180910390fd5b6001600160a01b0382165f9081526008602052604090205460ff1661056b5760405162461bcd60e51b815260206004820152601760248201527f456d706c6f796565206e6f74207265676973746572656400000000000000000060448201526064016104fb565b6001600160a01b038281165f8181526007602090815260408083208151606081018352878152338185018181524283860190815284546001808201875595895297879020935160039098029093019687555192860180546001600160a01b0319169390981692909217909655945160029093019290925590518481527f2edfdcef059d1d26f994ef1a4eaeea086f7c9672052c0f01f911546afbba6460910160405180910390a35050565b60048181548110610625575f80fd5b905f5260205f2090600402015f91509050805f01805461064490612acd565b80601f016020809104026020016040519081016040528092919081815260200182805461067090612acd565b80156106bb5780601f10610692576101008083540402835291602001916106bb565b820191905f5260205f20905b81548152906001019060200180831161069e57829003601f168201915b5050505050908060010180546106d090612acd565b80601f01602080910402602001604051908101604052809291908181526020018280546106fc90612acd565b80156107475780601f1061071e57610100808354040283529160200191610747565b820191905f5260205f20905b81548152906001019060200180831161072a57829003601f168201915b50505050509080600201805461075c90612acd565b80601f016020809104026020016040519081016040528092919081815260200182805461078890612acd565b80156107d35780601f106107aa576101008083540402835291602001916107d3565b820191905f5260205f20905b8154815290600101906020018083116107b657829003601f168201915b505050600390930154919250506001600160a01b0381169060ff600160a01b8204811691600160a81b90041686565b5f546001600160a01b0316331461082b5760405162461bcd60e51b81526004016104fb90612b05565b50565b6001546001600160a01b0316331461087f5760405162461bcd60e51b815260206004820152601460248201527313db9b1e48119b1d595b98d948109858dad95b9960621b60448201526064016104fb565b6001600160a01b0381165f9081526008602052604090205460ff16610903576001600160a01b0381165f818152600860205260408120805460ff191660019081179091556009805491820181559091527f6e1540171b6c0c960b71a7020d9f60077f6af931a8bbf590da0223dacf75c7af0180546001600160a01b03191690911790555b6040516001600160a01b038216907f0db3a4aa2c7c447948fc41791351128418b0b95d158de36cf07dfab93776ef10905f90a250565b60056020525f908152604090208054819061064490612acd565b6001600160a01b0381165f908152600860205260408120546060919060ff166109bc57604080515f80825260208201909252906109b2565b604080518082019091526060808252602082015281526020019060019003908161098b5790505b50935f9350915050565b6001600160a01b0383165f90815260076020908152604080832080548251818502810185019093528083529192909190849084015b82821015610a45575f8481526020908190206040805160608101825260038602909201805483526001808201546001600160a01b0316848601526002909101549183019190915290835290920191016109f1565b5050505090505f815167ffffffffffffffff811115610a6657610a6661281b565b604051908082528060200260200182016040528015610aab57816020015b6040805180820190915260608082526020820152815260200190600190039081610a845790505b5090505f5b8251811015610e805760408051600180825281830190925290816020015b610af860405180606001604052805f81526020015f6001600160a01b031681526020015f81525090565b815260200190600190039081610ace57905050828281518110610b1d57610b1d612b29565b60200260200101515f0181905250828181518110610b3d57610b3d612b29565b6020026020010151828281518110610b5757610b57612b29565b60200260200101515f01515f81518110610b7357610b73612b29565b602090810291909101015260408051600180825281830190925290816020015b610bd66040518060c001604052806060815260200160608152602001606081526020015f6001600160a01b031681526020015f151581526020015f151581525090565b815260200190600190039081610b9357905050828281518110610bfb57610bfb612b29565b60200260200101516020018190525060055f848381518110610c1f57610c1f612b29565b6020026020010151602001516001600160a01b03166001600160a01b031681526020019081526020015f206040518060c00160405290815f82018054610c6490612acd565b80601f0160208091040260200160405190810160405280929190818152602001828054610c9090612acd565b8015610cdb5780601f10610cb257610100808354040283529160200191610cdb565b820191905f5260205f20905b815481529060010190602001808311610cbe57829003601f168201915b50505050508152602001600182018054610cf490612acd565b80601f0160208091040260200160405190810160405280929190818152602001828054610d2090612acd565b8015610d6b5780601f10610d4257610100808354040283529160200191610d6b565b820191905f5260205f20905b815481529060010190602001808311610d4e57829003601f168201915b50505050508152602001600282018054610d8490612acd565b80601f0160208091040260200160405190810160405280929190818152602001828054610db090612acd565b8015610dfb5780601f10610dd257610100808354040283529160200191610dfb565b820191905f5260205f20905b815481529060010190602001808311610dde57829003601f168201915b5050509183525050600391909101546001600160a01b038116602083015260ff600160a01b8204811615156040840152600160a81b9091041615156060909101528251839083908110610e5057610e50612b29565b6020026020010151602001515f81518110610e6d57610e6d612b29565b6020908102919091010152600101610ab0565b50946001945092505050565b60606004805480602002602001604051908101604052809291908181526020015f905b828210156110d0578382905f5260205f2090600402016040518060c00160405290815f82018054610edf90612acd565b80601f0160208091040260200160405190810160405280929190818152602001828054610f0b90612acd565b8015610f565780601f10610f2d57610100808354040283529160200191610f56565b820191905f5260205f20905b815481529060010190602001808311610f3957829003601f168201915b50505050508152602001600182018054610f6f90612acd565b80601f0160208091040260200160405190810160405280929190818152602001828054610f9b90612acd565b8015610fe65780601f10610fbd57610100808354040283529160200191610fe6565b820191905f5260205f20905b815481529060010190602001808311610fc957829003601f168201915b50505050508152602001600282018054610fff90612acd565b80601f016020809104026020016040519081016040528092919081815260200182805461102b90612acd565b80156110765780601f1061104d57610100808354040283529160200191611076565b820191905f5260205f20905b81548152906001019060200180831161105957829003601f168201915b5050509183525050600391909101546001600160a01b03811660208084019190915260ff600160a01b8304811615156040850152600160a81b90920490911615156060909201919091529082526001929092019101610eaf565b50505050905090565b335f90815260056020526040902060030154600160a01b900460ff1661114f5760405162461bcd60e51b815260206004820152602560248201527f4f6e6c792074727573746564206f7267616e697a6174696f6e732063616e2076604482015264657269667960d81b60648201526084016104fb565b6001600160a01b0381165f90815260056020526040902060030154600160a01b900460ff16156111c15760405162461bcd60e51b815260206004820152601c60248201527f4f7267616e697a6174696f6e20616c726561647920747275737465640000000060448201526064016104fb565b6001600160a01b038181165f90815260056020526040902060030154166111fa5760405162461bcd60e51b81526004016104fb90612b3d565b6001600160a01b0381165f90815260066020908152604080832033845290915290205460ff161561123d5760405162461bcd60e51b81526004016104fb90612b74565b6001600160a01b0381165f818152600660208181526040808420338552808352908420805460ff1916600190811790915594845291905290910180549161128383612bcd565b90915550506040513381526001600160a01b038216907fb7526c22eb1f626ba49880e88385b6c420a5c241c7c1dda2919add63ce3d04e59060200160405180910390a26002546001600160a01b0382165f908152600660205260409020600101541061082b576001600160a01b0381165f81815260056020526040808220600301805460ff60a01b1916600160a01b179055517f70781e7fc2edf3e1f92ac434704e005e13431003c635dfe12def4529af34b6199190a261082b8161241d565b5f546001600160a01b0316331461136c5760405162461bcd60e51b81526004016104fb90612b05565b6001600160a01b0381165f90815260056020526040902060030154600160a81b900460ff16156113ee5760405162461bcd60e51b815260206004820152602760248201527f43616e6e6f742072656d6f766520636f6e7374727563746f72206f7267616e696044820152667a6174696f6e7360c81b60648201526084016104fb565b6001600160a01b0381165f908152600560205260408120906114108282612512565b61141d600183015f612512565b61142a600283015f612512565b5060030180546001600160b01b031916905561082b8161241d565b5f546001600160a01b03163314806114755750335f90815260056020526040902060030154600160a01b900460ff165b6114b25760405162461bcd60e51b815260206004820152600e60248201526d139bdd08185d5d1a1bdc9a5e995960921b60448201526064016104fb565b60608101516001600160a01b039081165f9081526005602052604090206003015416156115215760405162461bcd60e51b815260206004820152601b60248201527f4f7267616e697a6174696f6e20616c726561647920657869737473000000000060448201526064016104fb565b6040805160c08101825282518152602080840151818301528383015182840152606080850180516001600160a01b03908116928501929092525f6080850181905260a0850181905290519091168152600590915291909120815181906115879082612c31565b506020820151600182019061159c9082612c31565b50604082015160028201906115b19082612c31565b5060608281015160039283018054608086015160a0909601511515600160a81b0260ff60a81b19961515600160a01b026001600160a81b03199092166001600160a01b03948516179190911795909516949094179093558301805182546001810184555f939093527fc2575a0e9e593c00f959f8c92f12db2869c3395a3b0502d05e2516446f71f85b90920180549284166001600160a01b0319939093169290921790915551825160405191909216917f99387386d12dfaf2b6ede1ebfecd80b353c59f8669706cce8411513524898b259161168d9190612cef565b60405180910390a250565b600381815481106116a7575f80fd5b5f918252602090912001546001600160a01b0316905081565b6001600160a01b0381165f908152600760209081526040808320805482518185028101850190935280835260609492939192909184015b8282101561174b575f8481526020908190206040805160608101825260038602909201805483526001808201546001600160a01b0316848601526002909101549183019190915290835290920191016116f7565b505050509050919050565b5f546001600160a01b0316331461177f5760405162461bcd60e51b81526004016104fb90612b05565b60608101516001600160a01b039081165f9081526005602052604090206003015416156117ee5760405162461bcd60e51b815260206004820152601b60248201527f4f7267616e697a6174696f6e20616c726561647920657869737473000000000060448201526064016104fb565b6040805160c08101825282518152602080840151818301528383015182840152606080850180516001600160a01b039081169285019290925260016080850181905260a085015251165f908152600590915291909120815181906118529082612c31565b50602082015160018201906118679082612c31565b506040820151600282019061187c9082612c31565b5060608281015160039092018054608085015160a0909501511515600160a81b0260ff60a81b19951515600160a01b026001600160a81b03199092166001600160a01b039586161791909117949094169390931790925590820151165f90815260056020526040812060048054600181018255928190529091027f8a35acfbc15ff81a39ae7d344fd709f28e8600b4aa8c65c6b64bfe7fe36bd19b01806119238382612d01565b5060018181019061193690840182612d01565b5060028181019061194990840182612d01565b50600391820180549190920180546001600160a01b039283166001600160a01b031982168117835584546001600160a81b031990921617600160a01b9182900460ff908116151590920217808355935460ff60a81b19909416600160a81b948590049091161515909302929092179091556060820151825160405191909216917f99387386d12dfaf2b6ede1ebfecd80b353c59f8669706cce8411513524898b25916119f59190612cef565b60405180910390a280606001516001600160a01b03167f70781e7fc2edf3e1f92ac434704e005e13431003c635dfe12def4529af34b61960405160405180910390a250565b6001600160a01b038083165f9081526006602090815260408083209385168352929052205460ff165b92915050565b5f546001600160a01b03163314611a925760405162461bcd60e51b81526004016104fb90612b05565b6001600160a01b0381165f90815260056020526040902060030154600160a81b900460ff16611b1e5760405162461bcd60e51b815260206004820152603260248201527f4f6e6c7920636f6e7374727563746f72206f7267616e697a6174696f6e732063604482015271616e2062652072656d6f766564206865726560701b60648201526084016104fb565b6001600160a01b0381165f90815260056020526040812090611b408282612512565b611b4d600183015f612512565b611b5a600283015f612512565b5060030180546001600160b01b03191690555f5b600454811015611d0c57816001600160a01b031660048281548110611b9557611b95612b29565b5f9182526020909120600360049092020101546001600160a01b031603611d045760048054611bc690600190612dce565b81548110611bd657611bd6612b29565b905f5260205f20906004020160048281548110611bf557611bf5612b29565b5f918252602090912060049091020180611c0f8382612d01565b50600181810190611c2290840182612d01565b50600281810190611c3590840182612d01565b50600391820180549190920180546001600160a01b039092166001600160a01b031983168117825583546001600160a81b031990931617600160a01b9283900460ff908116151590930217808255925460ff60a81b19909316600160a81b9384900490921615159092021790556004805480611cb357611cb3612de1565b5f828152602081205f1990920191600483020190611cd18282612512565b611cde600183015f612512565b611ceb600283015f612512565b5060030180546001600160b01b03191690559055611d0c565b600101611b6e565b506040516001600160a01b038216907f32e74dff0cc4a334d589da94a8415637c308a2583a757e4395c78548a7ed2267905f90a250565b600981815481106116a7575f80fd5b6001546001600160a01b03163314611da35760405162461bcd60e51b815260206004820152601460248201527313db9b1e48119b1d595b98d948109858dad95b9960621b60448201526064016104fb565b6001600160a01b0382165f90815260056020526040902060030154600160a01b900460ff16611e1f5760405162461bcd60e51b815260206004820152602260248201527f566f746572206f7267616e697a6174696f6e206d757374206265207472757374604482015261195960f21b60648201526084016104fb565b6001600160a01b0381165f90815260056020526040902060030154600160a01b900460ff1615611e915760405162461bcd60e51b815260206004820152601c60248201527f4f7267616e697a6174696f6e20616c726561647920747275737465640000000060448201526064016104fb565b6001600160a01b038181165f9081526005602052604090206003015416611eca5760405162461bcd60e51b81526004016104fb90612b3d565b6001600160a01b038082165f9081526006602090815260408083209386168352929052205460ff1615611f0f5760405162461bcd60e51b81526004016104fb90612b74565b6001600160a01b038082165f81815260066020818152604080842095881684528582528320805460ff19166001908117909155938352529101805491611f5483612bcd565b90915550506040516001600160a01b0383811682528216907fb7526c22eb1f626ba49880e88385b6c420a5c241c7c1dda2919add63ce3d04e59060200160405180910390a26002546001600160a01b0382165f9081526006602052604090206001015410612016576001600160a01b0381165f81815260056020526040808220600301805460ff60a01b1916600160a01b179055517f70781e7fc2edf3e1f92ac434704e005e13431003c635dfe12def4529af34b6199190a26120168161241d565b5050565b6060600380548060200260200160405190810160405280929190818152602001828054801561207057602002820191905f5260205f20905b81546001600160a01b03168152600190910190602001808311612052575b5050505050905090565b6001600160a01b038181165f908152600560205260409020600301546060918291166120b85760405162461bcd60e51b81526004016104fb90612b3d565b5f805b6009548110156121d7575f600982815481106120d9576120d9612b29565b5f9182526020808320909101546001600160a01b031680835260078252604080842080548251818602810186019093528083529295509092909190849084015b8282101561216d575f8481526020908190206040805160608101825260038602909201805483526001808201546001600160a01b031684860152600290910154918301919091529083529092019101612119565b509293505f925050505b81518110156121cc57876001600160a01b031682828151811061219c5761219c612b29565b6020026020010151602001516001600160a01b0316036121c457846121c081612bcd565b9550505b600101612177565b5050506001016120bb565b508067ffffffffffffffff8111156121f1576121f161281b565b60405190808252806020026020018201604052801561224c57816020015b61223960405180606001604052805f81526020015f6001600160a01b031681526020015f81525090565b81526020019060019003908161220f5790505b5092508067ffffffffffffffff8111156122685761226861281b565b604051908082528060200260200182016040528015612291578160200160208202803683370190505b5091505f805b600954811015612415575f600982815481106122b5576122b5612b29565b5f9182526020808320909101546001600160a01b031680835260078252604080842080548251818602810186019093528083529295509092909190849084015b82821015612349575f8481526020908190206040805160608101825260038602909201805483526001808201546001600160a01b0316848601526002909101549183019190915290835290920191016122f5565b509293505f925050505b815181101561240a57886001600160a01b031682828151811061237857612378612b29565b6020026020010151602001516001600160a01b031603612402578181815181106123a4576123a4612b29565b60200260200101518886815181106123be576123be612b29565b6020026020010181905250828786815181106123dc576123dc612b29565b6001600160a01b0390921660209283029190910190910152846123fe81612bcd565b9550505b600101612353565b505050600101612297565b505050915091565b5f5b60035481101561201657816001600160a01b03166003828154811061244657612446612b29565b5f918252602090912001546001600160a01b03160361250a576003805461246f90600190612dce565b8154811061247f5761247f612b29565b5f91825260209091200154600380546001600160a01b0390921691839081106124aa576124aa612b29565b905f5260205f20015f6101000a8154816001600160a01b0302191690836001600160a01b0316021790555060038054806124e6576124e6612de1565b5f8281526020902081015f1990810180546001600160a01b03191690550190555050565b60010161241f565b50805461251e90612acd565b5f825580601f1061252d575050565b601f0160209004905f5260205f209081019061082b91905b80821115612558575f8155600101612545565b5090565b80356001600160a01b0381168114612572575f5ffd5b919050565b5f60208284031215612587575f5ffd5b6125908261255c565b9392505050565b5f5f604083850312156125a8575f5ffd5b6125b18361255c565b946020939093013593505050565b5f602082840312156125cf575f5ffd5b5035919050565b5f81518084528060208401602086015e5f602082860101526020601f19601f83011685010191505092915050565b60c081525f61261660c08301896125d6565b828103602084015261262881896125d6565b9050828103604084015261263c81886125d6565b6001600160a01b0396909616606084015250509115156080830152151560a0909101529392505050565b5f82825180855260208501945060208160051b830101602085015f5b8381101561271f57601f198584030188528151805160c085526126a860c08601826125d6565b9050602082015185820360208701526126c182826125d6565b915050604082015185820360408701526126db82826125d6565b6060848101516001600160a01b03169088015260808085015115159088015260a0938401511515939096019290925250506020978801979190910190600101612682565b50909695505050505050565b5f604082016040835280855180835260608501915060608160051b8601019250602087015f5b828110156127f657868503605f1901845281518051604080885281519088018190526020909101905f9060608901905b808310156127c3578351805183526020808201516001600160a01b03169084015260409081015190830152606082019150602084019350600183019250612781565b506020840151935088810360208a01526127dd8185612666565b9850505060209586019593909301925050600101612751565b5050505083151560208401529050612590565b602081525f6125906020830184612666565b634e487b7160e01b5f52604160045260245ffd5b6040516080810167ffffffffffffffff811182821017156128525761285261281b565b60405290565b5f82601f830112612867575f5ffd5b813567ffffffffffffffff8111156128815761288161281b565b604051601f8201601f19908116603f0116810167ffffffffffffffff811182821017156128b0576128b061281b565b6040528181528382016020018510156128c7575f5ffd5b816020850160208301375f918101602001919091529392505050565b5f602082840312156128f3575f5ffd5b813567ffffffffffffffff811115612909575f5ffd5b82016080818503121561291a575f5ffd5b61292261282f565b813567ffffffffffffffff811115612938575f5ffd5b61294486828501612858565b825250602082013567ffffffffffffffff811115612960575f5ffd5b61296c86828501612858565b602083015250604082013567ffffffffffffffff81111561298b575f5ffd5b61299786828501612858565b6040830152506129a96060830161255c565b6060820152949350505050565b5f8151808452602084019350602083015f5b82811015612a08578151805187526020808201516001600160a01b03169088015260409081015190870152606086019550602091909101906001016129c8565b5093949350505050565b602081525f61259060208301846129b6565b5f5f60408385031215612a35575f5ffd5b612a3e8361255c565b9150612a4c6020840161255c565b90509250929050565b5f8151808452602084019350602083015f5b82811015612a085781516001600160a01b0316865260209586019590910190600101612a67565b602081525f6125906020830184612a55565b604081525f612ab260408301856129b6565b8281036020840152612ac48185612a55565b95945050505050565b600181811c90821680612ae157607f821691505b602082108103612aff57634e487b7160e01b5f52602260045260245ffd5b50919050565b6020808252600a908201526927b7363c9037bbb732b960b11b604082015260600190565b634e487b7160e01b5f52603260045260245ffd5b6020808252601b908201527f4f7267616e697a6174696f6e20646f6573206e6f742065786973740000000000604082015260600190565b60208082526025908201527f416c72656164792076657269666965642062792074686973206f7267616e697a60408201526430ba34b7b760d91b606082015260800190565b634e487b7160e01b5f52601160045260245ffd5b5f60018201612bde57612bde612bb9565b5060010190565b601f821115612c2c57805f5260205f20601f840160051c81016020851015612c0a5750805b601f840160051c820191505b81811015612c29575f8155600101612c16565b50505b505050565b815167ffffffffffffffff811115612c4b57612c4b61281b565b612c5f81612c598454612acd565b84612be5565b6020601f821160018114612c94575f8315612c7a5750848201515b600184901b5f19600386901b1c198216175b855550612c29565b5f84815260208120601f198516915b82811015612cc35787850151825560209485019460019092019101612ca3565b5084821015612ce057868401515f19600387901b60f8161c191681555b50505050600190811b01905550565b602081525f61259060208301846125d6565b818103612d0c575050565b612d168254612acd565b67ffffffffffffffff811115612d2e57612d2e61281b565b612d3c81612c598454612acd565b5f601f821160018114612d6b575f8315612c7a575081850154600184901b5f19600386901b1c19821617612c8c565b5f8581526020808220868352908220601f198616925b83811015612da15782860154825560019586019590910190602001612d81565b5085831015612dbe57818501545f19600388901b60f8161c191681555b5050505050600190811b01905550565b81810381811115611a6357611a63612bb9565b634e487b7160e01b5f52603160045260245ffdfea2646970667358221220aa7c0c3be5d8c52c986433debcb6d080ac22c4bde29ae248c4c4d36c7041ec2d64736f6c634300081c0033",
  "linkReferences": {},
  "deployedLinkReferences": {},
  "immutableReferences": {},
  "inputSourceName": "project/contracts/WorkHistory.sol",
  "buildInfoId": "solc-0_8_28-aa6032fba70dc906d712651039d5c64b887ce245"
}