{
  "_format": "hh3-artifact-1",
  "contractName": "WorkHistory",
  "sourceName": "contracts/WorkHistory.sol",
  "abi": [
    {
      "inputs": [
        {
          "components": [
            {
              "internalType": "string",
              "name": "orgName",
              "type": "string"
            },
            {
              "internalType": "string",
              "name": "orgWebsite",
              "type": "string"
            },
            {
              "internalType": "string",
              "name": "physicalAddress",
              "type": "string"
            },
            {
              "internalType": "address",
              "name": "orgWalletAddress",
              "type": "address"
            }
          ],
          "internalType": "struct WorkHistory.ConstructorArgumentsOrganizations[]",
          "name": "_orgs",
          "type": "tuple[]"
        },
        {
          "internalType": "address",
          "name": "_fluenceBackendAddress",
          "type": "address"
        }
      ],
      "stateMutability": "nonpayable",
      "type": "constructor"
    },
    {
      "anonymous": false,
      "inputs": [
        {
          "indexed": true,
          "internalType": "address",
          "name": "user",
          "type": "address"
        },
        {
          "indexed": true,
          "internalType": "address",
          "name": "addedBy",
          "type": "address"
        },
        {
          "indexed": false,
          "internalType": "bytes32",
          "name": "documentHash",
          "type": "bytes32"
        }
      ],
      "name": "DocumentAdded",
      "type": "event"
    },
    {
      "anonymous": false,
      "inputs": [
        {
          "indexed": true,
          "internalType": "address",
          "name": "employee",
          "type": "address"
        }
      ],
      "name": "EmployeeRegistered",
      "type": "event"
    },
    {
      "anonymous": false,
      "inputs": [
        {
          "indexed": true,
          "internalType": "address",
          "name": "orgAddress",
          "type": "address"
        },
        {
          "indexed": false,
          "internalType": "string",
          "name": "orgName",
          "type": "string"
        }
      ],
      "name": "OrganizationAdded",
      "type": "event"
    },
    {
      "anonymous": false,
      "inputs": [
        {
          "indexed": true,
          "internalType": "address",
          "name": "orgAddress",
          "type": "address"
        }
      ],
      "name": "OrganizationTrusted",
      "type": "event"
    },
    {
      "anonymous": false,
      "inputs": [
        {
          "indexed": true,
          "internalType": "address",
          "name": "orgAddress",
          "type": "address"
        },
        {
          "indexed": false,
          "internalType": "address",
          "name": "verifiedBy",
          "type": "address"
        }
      ],
      "name": "OrganizationVerified",
      "type": "event"
    },
    {
      "inputs": [],
      "name": "VERIFICATION_THRESHOLD",
      "outputs": [
        {
          "internalType": "uint256",
          "name": "",
          "type": "uint256"
        }
      ],
      "stateMutability": "view",
      "type": "function"
    },
    {
      "inputs": [
        {
          "internalType": "address",
          "name": "_user",
          "type": "address"
        },
        {
          "internalType": "bytes32",
          "name": "_documentHash",
          "type": "bytes32"
        }
      ],
      "name": "addDocument",
      "outputs": [],
      "stateMutability": "nonpayable",
      "type": "function"
    },
    {
      "inputs": [
        {
          "components": [
            {
              "internalType": "string",
              "name": "orgName",
              "type": "string"
            },
            {
              "internalType": "string",
              "name": "orgWebsite",
              "type": "string"
            },
            {
              "internalType": "string",
              "name": "physicalAddress",
              "type": "string"
            },
            {
              "internalType": "address",
              "name": "orgWalletAddress",
              "type": "address"
            }
          ],
          "internalType": "struct WorkHistory.ConstructorArgumentsOrganizations",
          "name": "_org",
          "type": "tuple"
        }
      ],
      "name": "addOrganization",
      "outputs": [],
      "stateMutability": "nonpayable",
      "type": "function"
    },
    {
      "inputs": [
        {
          "internalType": "address",
          "name": "_employee",
          "type": "address"
        }
      ],
      "name": "checkIfEmployeeExists",
      "outputs": [
        {
          "internalType": "bool",
          "name": "",
          "type": "bool"
        }
      ],
      "stateMutability": "view",
      "type": "function"
    },
    {
      "inputs": [
        {
          "internalType": "address",
          "name": "_orgAddress",
          "type": "address"
        }
      ],
      "name": "checkIfOrgExists",
      "outputs": [
        {
          "internalType": "bool",
          "name": "",
          "type": "bool"
        }
      ],
      "stateMutability": "view",
      "type": "function"
    },
    {
      "inputs": [],
      "name": "fluenceBackendAddress",
      "outputs": [
        {
          "internalType": "address",
          "name": "",
          "type": "address"
        }
      ],
      "stateMutability": "view",
      "type": "function"
    },
    {
      "inputs": [],
      "name": "getPendingOrganizations",
      "outputs": [
        {
          "internalType": "address[]",
          "name": "",
          "type": "address[]"
        }
      ],
      "stateMutability": "view",
      "type": "function"
    },
    {
      "inputs": [
        {
          "internalType": "address",
          "name": "_user",
          "type": "address"
        }
      ],
      "name": "getUserDocuments",
      "outputs": [
        {
          "components": [
            {
              "internalType": "bytes32",
              "name": "documentHash",
              "type": "bytes32"
            },
            {
              "internalType": "address",
              "name": "addedBy",
              "type": "address"
            },
            {
              "internalType": "uint256",
              "name": "timestamp",
              "type": "uint256"
            }
          ],
          "internalType": "struct WorkHistory.DocumentRecord[]",
          "name": "",
          "type": "tuple[]"
        }
      ],
      "stateMutability": "view",
      "type": "function"
    },
    {
      "inputs": [
        {
          "internalType": "address",
          "name": "_orgAddress",
          "type": "address"
        }
      ],
      "name": "getVerificationCount",
      "outputs": [
        {
          "internalType": "uint256",
          "name": "",
          "type": "uint256"
        }
      ],
      "stateMutability": "view",
      "type": "function"
    },
    {
      "inputs": [
        {
          "internalType": "address",
          "name": "_orgAddress",
          "type": "address"
        },
        {
          "internalType": "address",
          "name": "_verifier",
          "type": "address"
        }
      ],
      "name": "hasVerified",
      "outputs": [
        {
          "internalType": "bool",
          "name": "",
          "type": "bool"
        }
      ],
      "stateMutability": "view",
      "type": "function"
    },
    {
      "inputs": [
        {
          "internalType": "address",
          "name": "",
          "type": "address"
        }
      ],
      "name": "organizations",
      "outputs": [
        {
          "internalType": "string",
          "name": "orgName",
          "type": "string"
        },
        {
          "internalType": "string",
          "name": "orgWebsite",
          "type": "string"
        },
        {
          "internalType": "string",
          "name": "physicalAddress",
          "type": "string"
        },
        {
          "internalType": "address",
          "name": "orgWalletAddress",
          "type": "address"
        },
        {
          "internalType": "bool",
          "name": "isTrusted",
          "type": "bool"
        },
        {
          "internalType": "bool",
          "name": "isFromConstructor",
          "type": "bool"
        }
      ],
      "stateMutability": "view",
      "type": "function"
    },
    {
      "inputs": [],
      "name": "owner",
      "outputs": [
        {
          "internalType": "address",
          "name": "",
          "type": "address"
        }
      ],
      "stateMutability": "view",
      "type": "function"
    },
    {
      "inputs": [
        {
          "internalType": "uint256",
          "name": "",
          "type": "uint256"
        }
      ],
      "name": "pendingOrgs",
      "outputs": [
        {
          "internalType": "address",
          "name": "",
          "type": "address"
        }
      ],
      "stateMutability": "view",
      "type": "function"
    },
    {
      "inputs": [
        {
          "internalType": "address",
          "name": "_employee",
          "type": "address"
        }
      ],
      "name": "registerEmployee",
      "outputs": [],
      "stateMutability": "nonpayable",
      "type": "function"
    },
    {
      "inputs": [
        {
          "internalType": "address",
          "name": "",
          "type": "address"
        }
      ],
      "name": "registeredEmployees",
      "outputs": [
        {
          "internalType": "bool",
          "name": "",
          "type": "bool"
        }
      ],
      "stateMutability": "view",
      "type": "function"
    },
    {
      "inputs": [
        {
          "internalType": "address",
          "name": "_orgAddress",
          "type": "address"
        }
      ],
      "name": "removeOrganization",
      "outputs": [],
      "stateMutability": "nonpayable",
      "type": "function"
    },
    {
      "inputs": [
        {
          "internalType": "uint256",
          "name": "_newThreshold",
          "type": "uint256"
        }
      ],
      "name": "setVerificationThreshold",
      "outputs": [],
      "stateMutability": "nonpayable",
      "type": "function"
    },
    {
      "inputs": [
        {
          "internalType": "address",
          "name": "",
          "type": "address"
        }
      ],
      "name": "verificationStatuses",
      "outputs": [
        {
          "internalType": "uint256",
          "name": "count",
          "type": "uint256"
        }
      ],
      "stateMutability": "view",
      "type": "function"
    },
    {
      "inputs": [
        {
          "internalType": "address",
          "name": "_orgAddress",
          "type": "address"
        }
      ],
      "name": "verifyOrganization",
      "outputs": [],
      "stateMutability": "nonpayable",
      "type": "function"
    }
  ],
  "bytecode": "0x6080604052600180546001600160a01b03191673dcefdee35a355715924c100870a5689b06c2dd95179055348015610035575f5ffd5b50604051611cc5380380611cc5833981016040819052610054916103d0565b600180546001600160a01b0319166001600160a01b0383161790555f5b82518110156102c5576040518060c001604052808483815181106100975761009761054f565b60200260200101515f015181526020018483815181106100b9576100b961054f565b60200260200101516020015181526020018483815181106100dc576100dc61054f565b60200260200101516040015181526020018483815181106100ff576100ff61054f565b6020026020010151606001516001600160a01b031681526020016001151581526020016001151581525060035f85848151811061013e5761013e61054f565b602090810291909101810151606001516001600160a01b031682528101919091526040015f208151819061017290826105e7565b506020820151600182019061018790826105e7565b506040820151600282019061019c90826105e7565b50606082015160039091018054608084015160a0909401511515600160a81b0260ff60a81b19941515600160a01b026001600160a81b03199092166001600160a01b0390941693909317179290921617905582518390829081106102025761020261054f565b6020026020010151606001516001600160a01b03167f99387386d12dfaf2b6ede1ebfecd80b353c59f8669706cce8411513524898b2584838151811061024a5761024a61054f565b60200260200101515f015160405161026291906106a1565b60405180910390a282818151811061027c5761027c61054f565b6020026020010151606001516001600160a01b03167f70781e7fc2edf3e1f92ac434704e005e13431003c635dfe12def4529af34b61960405160405180910390a2600101610071565b50505f80546001600160a01b03191633179055506106d6565b634e487b7160e01b5f52604160045260245ffd5b604051608081016001600160401b0381118282101715610314576103146102de565b60405290565b604051601f8201601f191681016001600160401b0381118282101715610342576103426102de565b604052919050565b5f82601f830112610359575f5ffd5b81516001600160401b03811115610372576103726102de565b610385601f8201601f191660200161031a565b818152846020838601011115610399575f5ffd5b8160208501602083015e5f918101602001919091529392505050565b80516001600160a01b03811681146103cb575f5ffd5b919050565b5f5f604083850312156103e1575f5ffd5b82516001600160401b038111156103f6575f5ffd5b8301601f81018513610406575f5ffd5b80516001600160401b0381111561041f5761041f6102de565b8060051b61042f6020820161031a565b9182526020818401810192908101908884111561044a575f5ffd5b6020850192505b838310156105325782516001600160401b0381111561046e575f5ffd5b85016080818b03601f19011215610483575f5ffd5b61048b6102f2565b60208201516001600160401b038111156104a3575f5ffd5b6104b28c60208386010161034a565b82525060408201516001600160401b038111156104cd575f5ffd5b6104dc8c60208386010161034a565b60208301525060608201516001600160401b038111156104fa575f5ffd5b6105098c60208386010161034a565b60408301525061051b608083016103b5565b606082015283525060209283019290910190610451565b8096505050505050610546602084016103b5565b90509250929050565b634e487b7160e01b5f52603260045260245ffd5b600181811c9082168061057757607f821691505b60208210810361059557634e487b7160e01b5f52602260045260245ffd5b50919050565b601f8211156105e257805f5260205f20601f840160051c810160208510156105c05750805b601f840160051c820191505b818110156105df575f81556001016105cc565b50505b505050565b81516001600160401b03811115610600576106006102de565b6106148161060e8454610563565b8461059b565b6020601f821160018114610646575f831561062f5750848201515b5f19600385901b1c1916600184901b1784556105df565b5f84815260208120601f198516915b828110156106755787850151825560209485019460019092019101610655565b508482101561069257868401515f19600387901b60f8161c191681555b50505050600190811b01905550565b602081525f82518060208401528060208501604085015e5f604082850101526040601f19601f83011684010191505092915050565b6115e2806106e35f395ff3fe608060405234801561000f575f5ffd5b506004361061011c575f3560e01c80636ff2c610116100a9578063adf3de991161006e578063adf3de99146102a7578063bd2e5133146102ba578063f017c5a6146102dc578063f43eb52614610307578063fb4cf4251461031c575f5ffd5b80636ff2c6101461023c578063866fa9f11461024f5780638b3d2325146102625780638da5cb5b1461027557806390a4b16214610287575f5ffd5b80633f53b43f116100ef5780633f53b43f146101aa5780634de4d844146101c05780635786a552146101f15780635a1f7406146102045780636d567acd14610229575f5ffd5b80630989086d146101205780630ce9ffe81461015757806311c250601461016c57806338cc32c414610197575b5f5ffd5b61014261012e366004611095565b60066020525f908152604090205460ff1681565b60405190151581526020015b60405180910390f35b61016a6101653660046110b5565b610347565b005b60015461017f906001600160a01b031681565b6040516001600160a01b03909116815260200161014e565b61016a6101a53660046110dd565b6104dc565b6101b2600381565b60405190815260200161014e565b6101426101ce366004611095565b6001600160a01b039081165f908152600360208190526040909120015416151590565b61016a6101ff366004611095565b610525565b610217610212366004611095565b6105c1565b60405161014e96959493929190611122565b61016a610237366004611095565b610799565b61016a61024a366004611095565b610a75565b61016a61025d36600461124c565b610b95565b61017f6102703660046110dd565b610dea565b5f5461017f906001600160a01b031681565b61029a610295366004611095565b610e12565b60405161014e919061131f565b6101426102b5366004611383565b610ea8565b6101b26102c8366004611095565b60046020525f908152604090206001015481565b6101b26102ea366004611095565b6001600160a01b03165f9081526004602052604090206001015490565b61030f610ed7565b60405161014e91906113b4565b61014261032a366004611095565b6001600160a01b03165f9081526006602052604090205460ff1690565b335f9081526003602081905260409091200154600160a01b900460ff166103ca5760405162461bcd60e51b815260206004820152602c60248201527f4f6e6c792074727573746564206f7267616e697a6174696f6e732063616e206160448201526b646420646f63756d656e747360a01b60648201526084015b60405180910390fd5b6001600160a01b0382165f9081526006602052604090205460ff166104315760405162461bcd60e51b815260206004820152601760248201527f456d706c6f796565206e6f74207265676973746572656400000000000000000060448201526064016103c1565b6001600160a01b038281165f8181526005602090815260408083208151606081018352878152338185018181524283860190815284546001808201875595895297879020935160039098029093019687555192860180546001600160a01b0319169390981692909217909655945160029093019290925590518481527f2edfdcef059d1d26f994ef1a4eaeea086f7c9672052c0f01f911546afbba6460910160405180910390a35050565b5f546001600160a01b031633146105225760405162461bcd60e51b815260206004820152600a60248201526927b7363c9037bbb732b960b11b60448201526064016103c1565b50565b6001546001600160a01b031633146105765760405162461bcd60e51b815260206004820152601460248201527313db9b1e48119b1d595b98d948109858dad95b9960621b60448201526064016103c1565b6001600160a01b0381165f81815260066020526040808220805460ff19166001179055517f0db3a4aa2c7c447948fc41791351128418b0b95d158de36cf07dfab93776ef109190a250565b60036020525f90815260409020805481906105db906113f4565b80601f0160208091040260200160405190810160405280929190818152602001828054610607906113f4565b80156106525780601f1061062957610100808354040283529160200191610652565b820191905f5260205f20905b81548152906001019060200180831161063557829003601f168201915b505050505090806001018054610667906113f4565b80601f0160208091040260200160405190810160405280929190818152602001828054610693906113f4565b80156106de5780601f106106b5576101008083540402835291602001916106de565b820191905f5260205f20905b8154815290600101906020018083116106c157829003601f168201915b5050505050908060020180546106f3906113f4565b80601f016020809104026020016040519081016040528092919081815260200182805461071f906113f4565b801561076a5780601f106107415761010080835404028352916020019161076a565b820191905f5260205f20905b81548152906001019060200180831161074d57829003601f168201915b505050600390930154919250506001600160a01b0381169060ff600160a01b8204811691600160a81b90041686565b335f9081526003602081905260409091200154600160a01b900460ff166108105760405162461bcd60e51b815260206004820152602560248201527f4f6e6c792074727573746564206f7267616e697a6174696f6e732063616e2076604482015264657269667960d81b60648201526084016103c1565b6001600160a01b0381165f9081526003602081905260409091200154600160a01b900460ff16156108835760405162461bcd60e51b815260206004820152601c60248201527f4f7267616e697a6174696f6e20616c726561647920747275737465640000000060448201526064016103c1565b6001600160a01b038181165f9081526003602081905260409091200154166108ed5760405162461bcd60e51b815260206004820152601b60248201527f4f7267616e697a6174696f6e20646f6573206e6f74206578697374000000000060448201526064016103c1565b6001600160a01b0381165f90815260046020908152604080832033845290915290205460ff161561096e5760405162461bcd60e51b815260206004820152602560248201527f416c72656164792076657269666965642062792074686973206f7267616e697a60448201526430ba34b7b760d91b60648201526084016103c1565b6001600160a01b0381165f818152600460208181526040808420338552808352908420805460ff191660019081179091559484529190529091018054916109b483611440565b90915550506040513381526001600160a01b038216907fb7526c22eb1f626ba49880e88385b6c420a5c241c7c1dda2919add63ce3d04e59060200160405180910390a26001600160a01b0381165f90815260046020526040902060010154600311610522576001600160a01b0381165f818152600360208190526040808320909101805460ff60a01b1916600160a01b179055517f70781e7fc2edf3e1f92ac434704e005e13431003c635dfe12def4529af34b6199190a261052281610f37565b5f546001600160a01b03163314610abb5760405162461bcd60e51b815260206004820152600a60248201526927b7363c9037bbb732b960b11b60448201526064016103c1565b6001600160a01b0381165f9081526003602081905260409091200154600160a81b900460ff1615610b3e5760405162461bcd60e51b815260206004820152602760248201527f43616e6e6f742072656d6f766520636f6e7374727563746f72206f7267616e696044820152667a6174696f6e7360c81b60648201526084016103c1565b6001600160a01b0381165f90815260036020526040812090610b608282611030565b610b6d600183015f611030565b610b7a600283015f611030565b5060030180546001600160b01b031916905561052281610f37565b5f546001600160a01b0316331480610bc65750335f9081526003602081905260409091200154600160a01b900460ff165b610c035760405162461bcd60e51b815260206004820152600e60248201526d139bdd08185d5d1a1bdc9a5e995960921b60448201526064016103c1565b60608101516001600160a01b039081165f90815260036020819052604090912001541615610c735760405162461bcd60e51b815260206004820152601b60248201527f4f7267616e697a6174696f6e20616c726561647920657869737473000000000060448201526064016103c1565b6040805160c08101825282518152602080840151818301528383015182840152606080850180516001600160a01b03908116928501929092525f6080850181905260a085018190529051909116815260039091529190912081518190610cd990826114a4565b5060208201516001820190610cee90826114a4565b5060408201516002820190610d0390826114a4565b5060608281015160039092018054608085015160a0909501511515600160a81b0260ff60a81b19951515600160a01b026001600160a81b03199092166001600160a01b03958616179190911794909416939093179092559082018051600280546001810182555f919091527f405787fa12a823e0f2b7631cc41b3ba8828b3321ca811111fa75cd3aa3bb5ace0180549184166001600160a01b03199290921691909117905551825160405191909216917f99387386d12dfaf2b6ede1ebfecd80b353c59f8669706cce8411513524898b2591610ddf919061155f565b60405180910390a250565b60028181548110610df9575f80fd5b5f918252602090912001546001600160a01b0316905081565b6001600160a01b0381165f908152600560209081526040808320805482518185028101850190935280835260609492939192909184015b82821015610e9d575f8481526020908190206040805160608101825260038602909201805483526001808201546001600160a01b031684860152600290910154918301919091529083529092019101610e49565b505050509050919050565b6001600160a01b038083165f9081526004602090815260408083209385168352929052205460ff165b92915050565b60606002805480602002602001604051908101604052809291908181526020018280548015610f2d57602002820191905f5260205f20905b81546001600160a01b03168152600190910190602001808311610f0f575b5050505050905090565b5f5b60025481101561102c57816001600160a01b031660028281548110610f6057610f60611571565b5f918252602090912001546001600160a01b0316036110245760028054610f8990600190611585565b81548110610f9957610f99611571565b5f91825260209091200154600280546001600160a01b039092169183908110610fc457610fc4611571565b905f5260205f20015f6101000a8154816001600160a01b0302191690836001600160a01b03160217905550600280548061100057611000611598565b5f8281526020902081015f1990810180546001600160a01b03191690550190555050565b600101610f39565b5050565b50805461103c906113f4565b5f825580601f1061104b575050565b601f0160209004905f5260205f209081019061052291905b80821115611076575f8155600101611063565b5090565b80356001600160a01b0381168114611090575f5ffd5b919050565b5f602082840312156110a5575f5ffd5b6110ae8261107a565b9392505050565b5f5f604083850312156110c6575f5ffd5b6110cf8361107a565b946020939093013593505050565b5f602082840312156110ed575f5ffd5b5035919050565b5f81518084528060208401602086015e5f602082860101526020601f19601f83011685010191505092915050565b60c081525f61113460c08301896110f4565b828103602084015261114681896110f4565b9050828103604084015261115a81886110f4565b6001600160a01b0396909616606084015250509115156080830152151560a0909101529392505050565b634e487b7160e01b5f52604160045260245ffd5b6040516080810167ffffffffffffffff811182821017156111bb576111bb611184565b60405290565b5f82601f8301126111d0575f5ffd5b813567ffffffffffffffff8111156111ea576111ea611184565b604051601f8201601f19908116603f0116810167ffffffffffffffff8111828210171561121957611219611184565b604052818152838201602001851015611230575f5ffd5b816020850160208301375f918101602001919091529392505050565b5f6020828403121561125c575f5ffd5b813567ffffffffffffffff811115611272575f5ffd5b820160808185031215611283575f5ffd5b61128b611198565b813567ffffffffffffffff8111156112a1575f5ffd5b6112ad868285016111c1565b825250602082013567ffffffffffffffff8111156112c9575f5ffd5b6112d5868285016111c1565b602083015250604082013567ffffffffffffffff8111156112f4575f5ffd5b611300868285016111c1565b6040830152506113126060830161107a565b6060820152949350505050565b602080825282518282018190525f918401906040840190835b81811015611378578351805184526020808201516001600160a01b0316818601526040918201519185019190915290930192606090920191600101611338565b509095945050505050565b5f5f60408385031215611394575f5ffd5b61139d8361107a565b91506113ab6020840161107a565b90509250929050565b602080825282518282018190525f918401906040840190835b818110156113785783516001600160a01b03168352602093840193909201916001016113cd565b600181811c9082168061140857607f821691505b60208210810361142657634e487b7160e01b5f52602260045260245ffd5b50919050565b634e487b7160e01b5f52601160045260245ffd5b5f600182016114515761145161142c565b5060010190565b601f82111561149f57805f5260205f20601f840160051c8101602085101561147d5750805b601f840160051c820191505b8181101561149c575f8155600101611489565b50505b505050565b815167ffffffffffffffff8111156114be576114be611184565b6114d2816114cc84546113f4565b84611458565b6020601f821160018114611504575f83156114ed5750848201515b5f19600385901b1c1916600184901b17845561149c565b5f84815260208120601f198516915b828110156115335787850151825560209485019460019092019101611513565b508482101561155057868401515f19600387901b60f8161c191681555b50505050600190811b01905550565b602081525f6110ae60208301846110f4565b634e487b7160e01b5f52603260045260245ffd5b81810381811115610ed157610ed161142c565b634e487b7160e01b5f52603160045260245ffdfea26469706673582212208f9a664c08bd606c2f18cc65a46897d3f2852fa7125ccd8186a5ef4909ef3cb064736f6c634300081c0033",
  "linkReferences": {},
  "deployedLinkReferences": {},
  "immutableReferences": {},
  "inputSourceName": "project/contracts/WorkHistory.sol",
  "buildInfoId": "solc-0_8_28-fdd6c5f7861d238690f95b40ab7986b07ec759e1"
}